:100000000C9462000C948A000C948A000C948A0070
:100010000C948A000C948A000C948A000C948A0038
:100020000C948A000C948A000C948A000C94FB02B5
:100030000C948A000C948A000C948A000C948A0018
:100040000C9459020C948A000C94C9020C94A302DB
:100050000C948A000C948A000C948A000C948A00F8
:100060000C948A000C948A000000000023002600F3
:10007000290000000000240027002A0000000000E2
:10008000250028002B0004040404040404040202D4
:100090000202020203030303030301020408102007
:1000A0004080010204081020010204081020000012
:1000B0000008000201000003040700000000000027
:1000C0000000FC0311241FBECFEFD8E0DEBFCDBF80
:1000D00011E0A0E0B1E0E8EAFFE002C005900D9277
:1000E000A032B107D9F721E0A0E2B1E001C01D9232
:1000F000A13FB207E1F710E0C2E6D0E004C02197CB
:10010000FE010E94CC07C136D107C9F70E945904ED
:100110000C94D2070C940000E091EE01EC3088F5CD
:100120004091EF0128E830E0241B310947FD339569
:10013000220F331F220F331F8217930784F0409141
:10014000F00128E532E0241B310947FD3395220FE9
:10015000331F220F331F821793070CF49C01225088
:100160003109220F331F4FB7F8948E2F90E0FC0116
:10017000EE0FFF1FE80FF91FE753FE4F3283218375
:100180004FBF089590E0FC01E255FF4F2491FC0120
:10019000E656FF4F3491FC01EA57FF4FE491EE23FE
:1001A000C9F0222339F0233001F1A8F4213019F1EC
:1001B000223029F1F0E0EE0FFF1FE458FF4FA59128
:1001C000B4918FB7F894EC91611126C030953E231D
:1001D0003C938FBF08952730A9F02830C9F0243010
:1001E00049F7809180008F7D03C0809180008F77D8
:1001F00080938000DFCF84B58F7784BDDBCF84B55B
:100200008F7DFBCF8091B0008F778093B000D2CFED
:100210008091B0008F7DF9CF3E2BDACFCF93DF9363
:1002200090E0FC01E656FF4F24918A579F4FFC0156
:1002300084918823D1F090E0880F991FFC01EE583B
:10024000FF4FA591B491FC01E458FF4FC591D491A3
:1002500061110EC09FB7F8948C91E22FE0958E2328
:100260008C932881E223E8839FBFDF91CF9108958B
:100270008FB7F894EC91E22BEC938FBFF6CFAF924F
:10028000BF92CF92DF92EF92FF920F931F93CF9383
:10029000DF936C017B018B01040F151FEB015E01E5
:1002A000AE18BF08C017D10759F06991D601ED917A
:1002B000FC910190F081E02DC6010995892B79F719
:1002C000C501DF91CF911F910F91FF90EF90DF90CB
:1002D000CF90BF90AF900895FC01538D448D252F92
:1002E00030E0842F90E0821B930B541710F0CF96D0
:1002F000089501970895FC01918D828D981761F002
:10030000A28DAE0FBF2FB11D5D968C91928D9F5F18
:100310009F73928F90E008958FEF9FEF0895FC01F7
:10032000918D828D981731F0828DE80FF11D858DAA
:1003300090E008958FEF9FEF0895FC01918D228D3D
:10034000892F90E0805C9F4F821B91098F739927C2
:1003500008958CE291E00E949D0121E0892B09F42F
:1003600020E0822F089580E090E0892B29F00E9400
:10037000A90181110C9400000895FC01A48DA80F1F
:10038000B92FB11DA35ABF4F2C91848D90E00196D7
:100390008F739927848FA689B7892C93A089B189F7
:1003A0008C91837080648C93938D848D981306C098
:1003B0000288F389E02D80818F7D80830895EF92FC
:1003C000FF920F931F93CF93DF93EC0181E0888F0F
:1003D0009B8D8C8D98131AC0E889F989808185FFDF
:1003E00015C09FB7F894EE89FF896083E889F98981
:1003F00080818370806480839FBF81E090E0DF9183
:10040000CF911F910F91FF90EF900895F62E0B8DD5
:1004100010E00F5F1F4F0F731127E02E8C8D8E1190
:100420000CC00FB607FCFACFE889F989808185FFF7
:10043000F5CFCE010E94BD01F1CFEB8DEC0FFD2F6A
:10044000F11DE35AFF4FF0829FB7F8940B8FEA89B2
:10045000FB8980818062CFCFCF93DF93EC01888DC1
:100460008823B9F0AA89BB89E889F9898C9185FD2F
:1004700003C0808186FD0DC00FB607FCF7CF8C91BD
:1004800085FFF2CF808185FFEDCFCE010E94BD01B7
:10049000E9CFDF91CF910895FC0101900020E9F7A9
:1004A0003197AF01481B590BBC018CE291E00C94D1
:1004B0003F011F920F920FB60F9211242F933F937B
:1004C0008F939F93AF93BF938091280190912901BF
:1004D000A0912A01B0912B013091270123E0230F35
:1004E0002D3758F50196A11DB11D2093270180934A
:1004F000280190932901A0932A01B0932B018091A8
:10050000230190912401A0912501B091260101962B
:10051000A11DB11D8093230190932401A093250177
:10052000B0932601BF91AF919F918F913F912F91F1
:100530000F900FBE0F901F90189526E8230F02967C
:10054000A11DB11DD2CF1F920F920FB60F92112491
:100550002F933F934F935F936F937F938F939F93CB
:10056000AF93BF93EF93FF938CE291E00E94BD01A4
:10057000FF91EF91BF91AF919F918F917F916F917B
:100580005F914F913F912F910F900FBE0F901F9051
:1005900018951F920F920FB60F9211242F938F93DD
:1005A0009F93EF93FF93E0913C01F0913D01808197
:1005B000E0914201F091430182FD1BC09081809146
:1005C00045018F5F8F7320914601821741F0E091C2
:1005D0004501F0E0E45DFE4F958F80934501FF916A
:1005E000EF919F918F912F910F900FBE0F901F90C1
:1005F00018958081F4CF1F920F920FB60F9211249D
:100600002F933F934F935F936F937F938F939F931A
:10061000AF93BF93CF93DF93EF93FF93809120012C
:10062000C091ED01D0E087FF24C0109285001092A8
:100630008400809120018F5F8093200180912001B0
:10064000082E000C990B8C179D0724F48091200133
:100650008C30C4F1809184009091850004968034A0
:100660009C4908F47AC0809184009091850004969A
:1006700076C080912001082E000C990B8C179D07E5
:10068000C4F6E09120018E2FEE0F990BFC01EE0FC6
:10069000FF1FE80FF91FE753FE4F808186FFC9CF88
:1006A000E09120018E2FEE0F990BFC01EE0FFF1F42
:1006B000E80FF91FE753FE4F808160E08F730E94BF
:1006C000C200B7CF2091840030918500E0912001D5
:1006D0008E2FEE0F990BFC01EE0FFF1FE80FF91F95
:1006E000E753FE4F81819281820F931F909389007F
:1006F00080938800E09120018E2FEE0F990BFC0172
:10070000EE0FFF1FE80FF91FE753FE4F808186FFB2
:1007100011C0E09120018E2FEE0F990BFC01EE0F1E
:10072000FF1FE80FF91FE753FE4F808161E08F73D1
:100730000E94C200FF91EF91DF91CF91BF91AF91E5
:100740009F918F917F916F915F914F913F912F91E9
:100750000F900FBE0F901F90189580E49CE9909326
:100760008900809388008FEF80932001E3CFCF92A0
:10077000DF92EF92FF920F931F93E82FF92F05C09E
:10078000015011092109310961F1908196239417D3
:10079000B9F305C0015011092109310911F1908106
:1007A00096239413F7CFC12CD12CE12CF12C0AC045
:1007B0008FEFC81AD80AE80AF80A0C151D052E058D
:1007C0003F0579F080818623841791F36C2D7D2D70
:1007D0008E2D9F2D1F910F91FF90EF90DF90CF9066
:1007E000089560E070E080E090E01F910F91FF902D
:1007F000EF90DF90CF90089510922F0110922E016C
:1008000088EE93E0A0E0B0E0809330019093310156
:10081000A0933201B093330184E091E090932D01D5
:1008200080932C0185EC90E09093390180933801FE
:1008300084EC90E090933B0180933A0180EC90E04F
:1008400090933D0180933C0181EC90E090933F01B7
:1008500080933E0182EC90E09093410180934001AF
:1008600086EC90E090934301809342011092450101
:100870001092460110924701109248018091ED01BB
:100880008C3098F491E0980F9093ED018093EE01F5
:1008900090E0FC01EE0FFF1FE80FF91FE753FE4F3A
:1008A00088EB9BE09283818308958FEF8093EE0124
:1008B0000895CF93DF93CDB7DEB7A1970FB6F89425
:1008C000DEBF0FBECDBF789484B5826084BD84B591
:1008D000816084BD85B5826085BD85B5816085BD3B
:1008E00080916E00816080936E00109281008091F3
:1008F000810082608093810080918100816080937B
:100900008100809180008160809380008091B1009F
:1009100084608093B1008091B00081608093B000CA
:1009200080917A00846080937A0080917A0082605E
:1009300080937A0080917A00816080937A00809120
:100940007A00806880937A001092C10060E089E0AC
:100950000E940E0161E08AE00E940E01E0913C01DC
:10096000F0913D0182E08083E0913801F0913901FE
:100970001082E0913A01F0913B018FEC808310925C
:100980004401E0914001F091410186E08083E091D3
:100990003E01F0913F01808180618083E0913E01C2
:1009A000F0913F01808188608083E0913E01F09169
:1009B0003F01808180688083E0913E01F0913F019A
:1009C00080818F7D80838091EE018C3008F051C052
:1009D00061E082E00E940E018091EE01282F30E05C
:1009E000F901EE0FFF1FE20FF31FE753FE4F908157
:1009F000907C926090831092EF011092F0012CE0B5
:100A0000622F0E94C007829FB001112430E020E0D5
:100A1000AB01420F531FFA01EE0FFF1FE40FF51F4A
:100A2000E753FE4F908196FD16C02F5F3F4F2C304D
:100A3000310571F781110FC01092800082E0809320
:100A400081001092850010928400B19A80916F000D
:100A5000826080936F00E091EE018E2F90E0FC01A8
:100A6000EE0FFF1FE80FF91FE753FE4F80818064F0
:100A700080836AE0462E512C612C712C78E8272E59
:100A8000312CE8E5AE2EE2E0BE2EF0E08F2EF0E055
:100A90009F2E82E191E00E944C02C0902101D090F3
:100AA00022010D2C000CEE08FF08F7FEC7C06DE216
:100AB0008CE291E00E94DF0122273327A9012C1943
:100AC0003D094E095F0919A2CE0181967C01CA0138
:100AD000B901A30192010E945E06605DF701629375
:100AE0007F01211531054105510589F7E114F10414
:100AF00019F0C7010E944C028CE191E00E944C0267
:100B000060E08AE00E94C20083E090E00197F1F784
:100B100061E08AE00E94C20083E290E00197F1F771
:100B200060E08AE00E94C200E3EAF0E06491EFE84E
:100B3000F0E08491E82FF0E0EE0FFF1FE859FF4F3F
:100B40008591949100E412E42FE030E0462F0E945A
:100B5000B703611571058105910529F06F5F7F4F1E
:100B60008F4F9F4F9F70072E000C880B990B0E9490
:100B7000C70626E933E44BE05DE30E942B0720E043
:100B800030E040E05FE30E942B070E948F068B015C
:100B900070932201609321018091EF019101281B44
:100BA000310987FD3395C901880F991F880F991F57
:100BB0006C01990FEE08FF088091F0019501281B48
:100BC000310987FD3395220F331F220F331F032E68
:100BD000000C440B550B2C193D094E095F09AEE47E
:100BE000B0E00E94530624EB30E040E050E00E9469
:100BF0003406DA01C9018C0D9D1DAE1DBF1D0E947A
:100C00008C000B30110574F48091F001F501E81BA4
:100C1000F10987FDF395CF01880F991F880F991F60
:100C20000E948C008114910409F433CF0E94A90121
:100C3000882309F42ECF0E9400002BCFA701960134
:100C400019A2CE0181967C01CA01B901A3019201CA
:100C50000E945E06605DF70162937F0121153105F8
:100C60004105510589F742CF052E97FB1EF40094EC
:100C70000E944B0657FD07D00E945E0607FC03D07A
:100C80004EF40C944B0650954095309521953F4F6E
:100C90004F4F5F4F089590958095709561957F4F68
:100CA0008F4F9F4F08950E948006A59F900DB49F7F
:100CB000900DA49F800D911D11240895A1E21A2E7C
:100CC000AA1BBB1BFD010DC0AA1FBB1FEE1FFF1FF0
:100CD000A217B307E407F50720F0A21BB30BE40B40
:100CE000F50B661F771F881F991F1A9469F7609587
:100CF0007095809590959B01AC01BD01CF01089541
:100D0000A29FB001B39FC001A39F700D811D11244C
:100D1000911DB29F700D811D1124911D08950E9497
:100D200096066894B1110C94250708950E940A074D
:100D300088F09F5798F0B92F9927B751B0F0E1F09C
:100D4000660F771F881F991F1AF0BA95C9F714C04C
:100D5000B13091F00E942407B1E008950C9424076B
:100D6000672F782F8827B85F39F0B93FCCF3869585
:100D700077956795B395D9F73EF4909580957095E2
:100D800061957F4F8F4F9F4F0895E89409C097FB5F
:100D90003EF490958095709561957F4F8F4F9F4F52
:100DA0009923A9F0F92F96E9BB279395F695879596
:100DB00077956795B795F111F8CFFAF4BB0F11F459
:100DC00060FF1BC06F5F7F4F8F4F9F4F16C0882300
:100DD00011F096E911C0772321F09EE8872F762F36
:100DE00005C0662371F096E8862F70E060E02AF077
:100DF0009A95660F771F881FDAF7880F9695879563
:100E000097F9089557FD9058440F551F59F05F3FCB
:100E100071F04795880F97FB991F61F09F3F79F01C
:100E200087950895121613061406551FF2CF46959E
:100E3000F1DF08C0161617061806991FF1CF869520
:100E40007105610508940895E894BB276627772704
:100E5000CB0197F908950E943E070C94AF070E94BA
:100E6000A10738F00E94A80720F0952311F00C94F8
:100E700098070C949E0711240C9425070E940207E2
:100E800070F3959FC1F3950F50E0551F629FF001DD
:100E9000729FBB27F00DB11D639FAA27F00DB11DF6
:100EA000AA1F649F6627B00DA11D661F829F22277F
:100EB000B00DA11D621F739FB00DA11D621F839F06
:100EC000A00D611D221F749F3327A00D611D231FDC
:100ED000849F600D211D822F762F6A2F11249F572A
:100EE00050409AF0F1F088234AF0EE0FFF1FBB1F2D
:100EF000661F771F881F91505040A9F79E3F5105EC
:100F000080F00C9498070C9425075F3FE4F3983E1B
:100F1000D4F3869577956795B795F795E7959F5F95
:100F2000C1F7FE2B880F911D9695879597F9089527
:100F300097F99F6780E870E060E008959FEF80EC8C
:100F4000089500240A94161617061806090608952F
:100F500000240A9412161306140605060895092E95
:100F60000394000C11F4882352F0BB0F40F4BF2B04
:100F700011F460FF04C06F5F7F4F8F4F9F4F089544
:100F8000991B79E004C0991F961708F0961B881FDB
:100F90007A95C9F780950895EE0FFF1F0590F4919B
:080FA000E02D0994F894FFCF45
:100FA80000000000DF013F016C012C029D017B0164
:100FB8008F0164697374616E63653A000D0A0000FD
:00000001FF
