:100000000C9458000C9480000C9480000C94800098
:100010000C9480000C9480000C9480000C946D0271
:100020000C9480000C9480000C9480000C94800050
:100030000C9480000C9480000C9480000C94800040
:100040000C94CB010C9480000C943B020C94150290
:100050000C9480000C9480000C9480000C94800020
:100060000C9480000C948000000000002400270005
:100070002A000000000023002600290000000000E4
:10008000250028002B0004040404040404040202D4
:100090000202020203030303030301020408102007
:1000A000408001020408102001020408102092027E
:1000B00011241FBECFEFD8E0DEBFCDBF11E0A0E01E
:1000C000B1E0E8E8F9E002C005900D92A032B10776
:1000D000D9F721E0A0E2B1E001C01D92AC3DB2072A
:1000E000E1F710E0C8E5D0E004C02197FE010E94CE
:1000F000B704C735D107C9F70E94FF020C94C204A8
:100100000C9400003FB7F8948091290190912A0146
:10011000A0912B01B0912C0126B5A89B05C02F3FC3
:1001200019F00196A11DB11D3FBFBA2FA92F982F1D
:100130008827820F911DA11DB11DBC01CD0142E098
:10014000660F771F881F991F4A95D1F70895CF92A0
:10015000DF92EF92FF920F931F93CF93DF936C0187
:100160007A018B01C0E0D0E0CE15DF0581F0D80127
:100170006D918D01D601ED91FC910190F081E02D02
:10018000C6010995892B11F02196EECF7E01C7019A
:10019000DF91CF911F910F91FF90EF90DF90CF9063
:1001A0000895089580E090E00895FC01538D448DFA
:1001B000252F30E0842F90E0821B930B541710F012
:1001C000CF96089501970895FC01918D828D98171F
:1001D00061F0828DDF01A80FB11D5D968C91928D2B
:1001E0009F5F9F73928F90E008958FEF9FEF089528
:1001F000FC01918D828D981731F0828DE80FF11DF1
:10020000858D90E008958FEF9FEF0895FC01918D0B
:10021000228D892F90E0805C9F4F821B91098F7304
:10022000992708958DE291E00E94060121E0892B33
:1002300009F420E0822F0895FC01848DDF01A80FCE
:10024000B11DA35ABF4F2C91848D90E001968F73FE
:100250009927848FA689B7892C93A089B1898C911D
:10026000837080648C93938D848D981306C002886C
:10027000F389E02D80818F7D80830895EF92FF9236
:100280000F931F93CF93DF93EC0181E0888F9B8DB9
:100290008C8D981305C0E889F989808185FD26C079
:1002A000F62E0B8D10E00F5F1F4F0F731127E02EFE
:1002B0008C8DE8120CC00FB607FCFACFE889F989DB
:1002C000808185FFF5CFCE010E941C01F1CF8B8D7F
:1002D000FE01E80FF11DE35AFF4FF0829FB7F8943B
:1002E0000B8FEA89FB89808180620AC09FB7F894EE
:1002F000EE89FF896083E889F98980818370806451
:1003000080839FBF81E090E0DF91CF911F910F919B
:10031000FF90EF900895CF93DF93EC01888D8823B1
:10032000C9F0EA89FB89808185FD05C0A889B98962
:100330008C9186FD0FC00FB607FCF5CF808185FF3D
:10034000F2CFA889B9898C9185FFEDCFCE010E94AB
:100350001C01E7CFDF91CF91089580E090E0892BD9
:1003600029F00E94120181110C9400000895009759
:1003700069F0FC0101900020E9F73197AF01481BBB
:10038000590BBC018DE291E00C94A70080E090E055
:1003900008950E94BD041F920F920FB60F92112470
:1003A0002F933F938F939F93AF93BF93809125019A
:1003B00090912601A0912701B0912801309124014C
:1003C00023E0230F2D3720F40196A11DB11D05C098
:1003D00026E8230F0296A11DB11D209324018093CE
:1003E000250190932601A0932701B09328018091C5
:1003F000290190912A01A0912B01B0912C01019625
:10040000A11DB11D8093290190932A01A0932B0176
:10041000B0932C01BF91AF919F918F913F912F91FC
:100420000F900FBE0F901F9018951F920F920FB64E
:100430000F9211242F933F934F935F936F937F936A
:100440008F939F93AF93BF93EF93FF938DE291E0D0
:100450000E941C01FF91EF91BF91AF919F918F91ED
:100460007F916F915F914F913F912F910F900FBEB0
:100470000F901F9018951F920F920FB60F92112494
:100480002F938F939F93EF93FF93E0913D01F09112
:100490003E018081E0914301F091440182FD12C050
:1004A0009081809146018F5F8F7320914701821761
:1004B00051F0E0914601F0E0E35DFE4F958F8093AF
:1004C000460101C08081FF91EF919F918F912F9103
:1004D0000F900FBE0F901F9018951F920F920FB69E
:1004E0000F9211242F933F934F935F936F937F93BA
:1004F0008F939F93AF93BF93EF93FF93E0E0F0E070
:100500000995FF91EF91BF91AF919F918F917F914D
:100510006F915F914F913F912F910F900FBE0F9070
:100520001F901895EDE2F1E01382128288EE93E0BD
:10053000A0E0B0E084839583A683B78384E091E054
:100540009183808385EC90E09587848784EC90E0AC
:100550009787868780EC90E0918B808B81EC90E090
:10056000938B828B82EC90E0958B848B86EC90E071
:10057000978B868B118E128E138E148EE6EAF0E026
:10058000E491AAECB1E01496EC931497E5EAF0E05C
:10059000E4911596EC93159782E990E0FC01249183
:1005A000E22FF0E0EE0FFF1FE458FF4F259134914A
:1005B00017963C932E931697E1E9F0E0E491F0E072
:1005C000EE0FFF1FEE58FF4F2591349119963C9383
:1005D0002E931897FC018491E82FF0E0EE0FFF1F97
:1005E000E859FF4F859194911B969C938E931A978F
:1005F00081EC9CE21D969C938E931C970895CF935B
:10060000DF93CDB7DEB7A1970FB6F894DEBF0FBE6C
:10061000CDBF789484B5826084BD84B5816084BD8B
:1006200085B5826085BD85B5816085BD80916E0090
:10063000816080936E0010928100809181008260C1
:1006400080938100809181008160809381008091FE
:1006500080008160809380008091B10084608093ED
:10066000B1008091B00081608093B00080917A00E9
:10067000846080937A0080917A00826080937A000F
:1006800080917A00816080937A0080917A008068FE
:1006900080937A001092C100E0913D01F0913E01FB
:1006A00082E08083E0913901F0913A011082E0917B
:1006B0003B01F0913C0180E1808310924501E09183
:1006C0004101F091420186E08083E0913F01F09189
:1006D0004001808180618083E0913F01F091400181
:1006E000808188608083E0913F01F09140018081AA
:1006F00080688083E0913F01F091400180818F7D8F
:10070000808393E2292E312C2AE0422E512C612C39
:10071000712C0E9482004B015C0182E3C82ED12C17
:10072000E12CF12C0E948200DC01CB01881999098F
:10073000AA09BB09883E9340A105B10598F321E0C1
:10074000C21AD108E108F10888EE880E83E0981EED
:10075000A11CB11CC114D104E104F10419F782E118
:1007600091E00E94B701E091D401F091D501908110
:100770008091CE01892B8083E091D001F091D1014D
:1007800090818091CE018095892380838BE090E0D9
:100790000197F1F7E091D001F091D1019081809122
:1007A000CE01892B8083C1010197F1F7E091D0013F
:1007B000F091D10190818091CE0180958923808331
:1007C000E091D401F091D50190818091CE01809586
:1007D00089238083E091D201F091D30190818091AF
:1007E000CF01892309F09EC00E9482002091D6018A
:1007F0003091D701890120E030E00855194E2F4F84
:100800003F4FDC01CB01800F911FA21FB31F8093CC
:10081000D8019093D901A093DA01B093DB01E09164
:10082000D201F091D30190818091CF01892381F48D
:100830000E9482000091D8011091D9012091DA0123
:100840003091DB01061717072807390740F76AC000
:100850000E9482002091D6013091D701DC01CB01AA
:10086000820F931FA11DB11D8093D8019093D901D0
:10087000A093DA01B093DB01E091D201F091D301B2
:1008800090818091CF01892381F00E9482000091A4
:10089000D8011091D9012091DA013091DB010617BE
:1008A00017072807390740F73DC00E9482002091B2
:1008B000D6013091D701A901455051092091D801A5
:1008C0003091D901FA01E21BF30BAF01460F571F1C
:1008D000BA0180E090E029E330E040E050E00E947F
:1008E000950419A28E010F5D1F4FCA01B901A30122
:1008F00092010E949504605DF80162938F012115B9
:1009000031054105510589F7CF010E94B70189E101
:1009100091E00E94B7018CE191E00E94B7010E9432
:10092000AD01F7CE40E050E0D3CFA1E21A2EAA1BD2
:10093000BB1BFD010DC0AA1FBB1FEE1FFF1FA2178F
:10094000B307E407F50720F0A21BB30BE40BF50B8C
:10095000661F771F881F991F1A9469F76095709515
:10096000809590959B01AC01BD01CF010895EE0FDC
:10097000FF1F0590F491E02D099481E090E0F89438
:080980000C94C204F894FFCFAF
:10098800000000003E01A700D5008B010601E4002D
:10099800F80050696E673A2000636D000D0A000088
:00000001FF
